{
  "_format": "hh-sol-artifact-1",
  "contractName": "LearningFi",
  "sourceName": "contracts/LearningFi.sol",
  "abi": [
    {
      "inputs": [
        {
          "internalType": "address",
          "name": "nativeToken",
          "type": "address"
        },
        {
          "internalType": "address",
          "name": "aavePoolAddress",
          "type": "address"
        }
      ],
      "stateMutability": "nonpayable",
      "type": "constructor"
    },
    {
      "inputs": [],
      "name": "EnforcedPause",
      "type": "error"
    },
    {
      "inputs": [],
      "name": "ExpectedPause",
      "type": "error"
    },
    {
      "inputs": [
        {
          "internalType": "address",
          "name": "owner",
          "type": "address"
        }
      ],
      "name": "OwnableInvalidOwner",
      "type": "error"
    },
    {
      "inputs": [
        {
          "internalType": "address",
          "name": "account",
          "type": "address"
        }
      ],
      "name": "OwnableUnauthorizedAccount",
      "type": "error"
    },
    {
      "inputs": [],
      "name": "ReentrancyGuardReentrantCall",
      "type": "error"
    },
    {
      "anonymous": false,
      "inputs": [
        {
          "indexed": true,
          "internalType": "address",
          "name": "donor",
          "type": "address"
        },
        {
          "indexed": false,
          "internalType": "uint256",
          "name": "amount",
          "type": "uint256"
        },
        {
          "indexed": false,
          "internalType": "uint256",
          "name": "timestamp",
          "type": "uint256"
        }
      ],
      "name": "Donation",
      "type": "event"
    },
    {
      "anonymous": false,
      "inputs": [
        {
          "indexed": true,
          "internalType": "address",
          "name": "previousOwner",
          "type": "address"
        },
        {
          "indexed": true,
          "internalType": "address",
          "name": "newOwner",
          "type": "address"
        }
      ],
      "name": "OwnershipTransferred",
      "type": "event"
    },
    {
      "anonymous": false,
      "inputs": [
        {
          "indexed": false,
          "internalType": "address",
          "name": "account",
          "type": "address"
        }
      ],
      "name": "Paused",
      "type": "event"
    },
    {
      "anonymous": false,
      "inputs": [
        {
          "indexed": true,
          "internalType": "address",
          "name": "student",
          "type": "address"
        },
        {
          "indexed": false,
          "internalType": "string",
          "name": "reason",
          "type": "string"
        }
      ],
      "name": "RegistrationError",
      "type": "event"
    },
    {
      "anonymous": false,
      "inputs": [
        {
          "indexed": true,
          "internalType": "address",
          "name": "student",
          "type": "address"
        },
        {
          "indexed": false,
          "internalType": "bytes",
          "name": "lowLevelData",
          "type": "bytes"
        }
      ],
      "name": "RegistrationErrorBytes",
      "type": "event"
    },
    {
      "anonymous": false,
      "inputs": [
        {
          "indexed": true,
          "internalType": "address",
          "name": "studentAddress",
          "type": "address"
        },
        {
          "indexed": false,
          "internalType": "uint256",
          "name": "timestamp",
          "type": "uint256"
        }
      ],
      "name": "Revoked",
      "type": "event"
    },
    {
      "anonymous": false,
      "inputs": [
        {
          "indexed": true,
          "internalType": "address",
          "name": "student",
          "type": "address"
        },
        {
          "indexed": true,
          "internalType": "string",
          "name": "imageIPFSHash",
          "type": "string"
        }
      ],
      "name": "StudentRegistered",
      "type": "event"
    },
    {
      "anonymous": false,
      "inputs": [
        {
          "indexed": false,
          "internalType": "address",
          "name": "account",
          "type": "address"
        }
      ],
      "name": "Unpaused",
      "type": "event"
    },
    {
      "inputs": [],
      "name": "ID",
      "outputs": [
        {
          "internalType": "uint256",
          "name": "",
          "type": "uint256"
        }
      ],
      "stateMutability": "view",
      "type": "function"
    },
    {
      "inputs": [],
      "name": "Overflow",
      "outputs": [
        {
          "internalType": "uint256",
          "name": "",
          "type": "uint256"
        }
      ],
      "stateMutability": "view",
      "type": "function"
    },
    {
      "inputs": [],
      "name": "admin",
      "outputs": [
        {
          "internalType": "address",
          "name": "",
          "type": "address"
        }
      ],
      "stateMutability": "view",
      "type": "function"
    },
    {
      "inputs": [
        {
          "internalType": "address",
          "name": "asset",
          "type": "address"
        },
        {
          "internalType": "uint256",
          "name": "amount",
          "type": "uint256"
        },
        {
          "internalType": "uint256",
          "name": "interestRateMode",
          "type": "uint256"
        }
      ],
      "name": "borrowFromAave",
      "outputs": [],
      "stateMutability": "nonpayable",
      "type": "function"
    },
    {
      "inputs": [
        {
          "internalType": "string",
          "name": "_title",
          "type": "string"
        },
        {
          "internalType": "string",
          "name": "_description",
          "type": "string"
        },
        {
          "internalType": "uint256",
          "name": "_amount",
          "type": "uint256"
        },
        {
          "internalType": "string",
          "name": "_imageIPFSHash",
          "type": "string"
        },
        {
          "internalType": "string",
          "name": "_institution",
          "type": "string"
        }
      ],
      "name": "createProposal",
      "outputs": [],
      "stateMutability": "payable",
      "type": "function"
    },
    {
      "inputs": [
        {
          "internalType": "uint256",
          "name": "_amount",
          "type": "uint256"
        },
        {
          "internalType": "uint256",
          "name": "_grantID",
          "type": "uint256"
        }
      ],
      "name": "donate",
      "outputs": [],
      "stateMutability": "nonpayable",
      "type": "function"
    },
    {
      "inputs": [],
      "name": "getStudents",
      "outputs": [
        {
          "components": [
            {
              "internalType": "uint256",
              "name": "id",
              "type": "uint256"
            },
            {
              "internalType": "address",
              "name": "student",
              "type": "address"
            },
            {
              "internalType": "string",
              "name": "transcript",
              "type": "string"
            },
            {
              "internalType": "bool",
              "name": "inDept",
              "type": "bool"
            }
          ],
          "internalType": "struct LearningFi.Student[]",
          "name": "",
          "type": "tuple[]"
        }
      ],
      "stateMutability": "view",
      "type": "function"
    },
    {
      "inputs": [],
      "name": "governanceAddress",
      "outputs": [
        {
          "internalType": "address",
          "name": "",
          "type": "address"
        }
      ],
      "stateMutability": "view",
      "type": "function"
    },
    {
      "inputs": [
        {
          "internalType": "address",
          "name": "",
          "type": "address"
        }
      ],
      "name": "isStudent",
      "outputs": [
        {
          "internalType": "bool",
          "name": "",
          "type": "bool"
        }
      ],
      "stateMutability": "view",
      "type": "function"
    },
    {
      "inputs": [],
      "name": "maxGrant",
      "outputs": [
        {
          "internalType": "uint256",
          "name": "",
          "type": "uint256"
        }
      ],
      "stateMutability": "view",
      "type": "function"
    },
    {
      "inputs": [],
      "name": "maxLoan",
      "outputs": [
        {
          "internalType": "uint256",
          "name": "",
          "type": "uint256"
        }
      ],
      "stateMutability": "view",
      "type": "function"
    },
    {
      "inputs": [],
      "name": "owner",
      "outputs": [
        {
          "internalType": "address",
          "name": "",
          "type": "address"
        }
      ],
      "stateMutability": "view",
      "type": "function"
    },
    {
      "inputs": [],
      "name": "pauseContract",
      "outputs": [],
      "stateMutability": "nonpayable",
      "type": "function"
    },
    {
      "inputs": [],
      "name": "paused",
      "outputs": [
        {
          "internalType": "bool",
          "name": "",
          "type": "bool"
        }
      ],
      "stateMutability": "view",
      "type": "function"
    },
    {
      "inputs": [],
      "name": "proposalCount",
      "outputs": [
        {
          "internalType": "uint256",
          "name": "",
          "type": "uint256"
        }
      ],
      "stateMutability": "view",
      "type": "function"
    },
    {
      "inputs": [],
      "name": "proposalDeadline",
      "outputs": [
        {
          "internalType": "uint256",
          "name": "",
          "type": "uint256"
        }
      ],
      "stateMutability": "view",
      "type": "function"
    },
    {
      "inputs": [
        {
          "internalType": "address",
          "name": "_student",
          "type": "address"
        },
        {
          "internalType": "string",
          "name": "_imageIPFSHash",
          "type": "string"
        }
      ],
      "name": "registerStudent",
      "outputs": [],
      "stateMutability": "nonpayable",
      "type": "function"
    },
    {
      "inputs": [],
      "name": "renounceOwnership",
      "outputs": [],
      "stateMutability": "nonpayable",
      "type": "function"
    },
    {
      "inputs": [
        {
          "internalType": "address",
          "name": "asset",
          "type": "address"
        },
        {
          "internalType": "uint256",
          "name": "amount",
          "type": "uint256"
        },
        {
          "internalType": "uint256",
          "name": "interestRateMode",
          "type": "uint256"
        }
      ],
      "name": "repayAaveLoan",
      "outputs": [],
      "stateMutability": "nonpayable",
      "type": "function"
    },
    {
      "inputs": [
        {
          "internalType": "address",
          "name": "_studentId",
          "type": "address"
        }
      ],
      "name": "revokeStudent",
      "outputs": [],
      "stateMutability": "nonpayable",
      "type": "function"
    },
    {
      "inputs": [
        {
          "internalType": "address",
          "name": "",
          "type": "address"
        }
      ],
      "name": "revoked",
      "outputs": [
        {
          "internalType": "bool",
          "name": "",
          "type": "bool"
        }
      ],
      "stateMutability": "view",
      "type": "function"
    },
    {
      "inputs": [
        {
          "internalType": "address",
          "name": "_recipient",
          "type": "address"
        },
        {
          "internalType": "uint256",
          "name": "_tokenId",
          "type": "uint256"
        },
        {
          "internalType": "string",
          "name": "_tokenURI",
          "type": "string"
        }
      ],
      "name": "rewardNFT",
      "outputs": [],
      "stateMutability": "nonpayable",
      "type": "function"
    },
    {
      "inputs": [
        {
          "internalType": "address",
          "name": "_adminAddress",
          "type": "address"
        }
      ],
      "name": "setAdminAddress",
      "outputs": [],
      "stateMutability": "nonpayable",
      "type": "function"
    },
    {
      "inputs": [
        {
          "internalType": "address",
          "name": "_governanceAddress",
          "type": "address"
        }
      ],
      "name": "setGovernanceAddress",
      "outputs": [],
      "stateMutability": "nonpayable",
      "type": "function"
    },
    {
      "inputs": [
        {
          "internalType": "uint256",
          "name": "_Amount",
          "type": "uint256"
        }
      ],
      "name": "setMaxGrant",
      "outputs": [],
      "stateMutability": "nonpayable",
      "type": "function"
    },
    {
      "inputs": [
        {
          "internalType": "uint256",
          "name": "_Amount",
          "type": "uint256"
        }
      ],
      "name": "setMaxLoan",
      "outputs": [],
      "stateMutability": "nonpayable",
      "type": "function"
    },
    {
      "inputs": [
        {
          "internalType": "address",
          "name": "",
          "type": "address"
        }
      ],
      "name": "studentMap",
      "outputs": [
        {
          "internalType": "uint256",
          "name": "",
          "type": "uint256"
        }
      ],
      "stateMutability": "view",
      "type": "function"
    },
    {
      "inputs": [
        {
          "internalType": "uint256",
          "name": "",
          "type": "uint256"
        }
      ],
      "name": "students",
      "outputs": [
        {
          "internalType": "uint256",
          "name": "id",
          "type": "uint256"
        },
        {
          "internalType": "address",
          "name": "student",
          "type": "address"
        },
        {
          "internalType": "string",
          "name": "transcript",
          "type": "string"
        },
        {
          "internalType": "bool",
          "name": "inDept",
          "type": "bool"
        }
      ],
      "stateMutability": "view",
      "type": "function"
    },
    {
      "inputs": [
        {
          "internalType": "address",
          "name": "asset",
          "type": "address"
        },
        {
          "internalType": "uint256",
          "name": "amount",
          "type": "uint256"
        }
      ],
      "name": "supplyToAave",
      "outputs": [],
      "stateMutability": "nonpayable",
      "type": "function"
    },
    {
      "inputs": [
        {
          "internalType": "address",
          "name": "_studentAddress",
          "type": "address"
        }
      ],
      "name": "toggleRevokedStatus",
      "outputs": [],
      "stateMutability": "nonpayable",
      "type": "function"
    },
    {
      "inputs": [
        {
          "internalType": "address",
          "name": "newOwner",
          "type": "address"
        }
      ],
      "name": "transferOwnership",
      "outputs": [],
      "stateMutability": "nonpayable",
      "type": "function"
    },
    {
      "inputs": [],
      "name": "unpauseContract",
      "outputs": [],
      "stateMutability": "nonpayable",
      "type": "function"
    },
    {
      "inputs": [
        {
          "internalType": "address",
          "name": "asset",
          "type": "address"
        },
        {
          "internalType": "uint256",
          "name": "amount",
          "type": "uint256"
        }
      ],
      "name": "withdrawFromAave",
      "outputs": [],
      "stateMutability": "nonpayable",
      "type": "function"
    },
    {
      "stateMutability": "payable",
      "type": "receive"
    }
  ],
  "bytecode": "0x60806040526103e86009556103e8600a556000600b556000600c553480156200002757600080fd5b506040516200381c3803806200381c83398181016040528101906200004d9190620002f1565b3360008060006101000a81548160ff02191690831515021790555060018081905550600073ffffffffffffffffffffffffffffffffffffffff168173ffffffffffffffffffffffffffffffffffffffff1603620000e45760006040517f1e4fbdf7000000000000000000000000000000000000000000000000000000008152600401620000db919062000349565b60405180910390fd5b620000f581620001c160201b60201c565b5081600360006101000a81548173ffffffffffffffffffffffffffffffffffffffff021916908373ffffffffffffffffffffffffffffffffffffffff16021790555080600460006101000a81548173ffffffffffffffffffffffffffffffffffffffff021916908373ffffffffffffffffffffffffffffffffffffffff16021790555033600660006101000a81548173ffffffffffffffffffffffffffffffffffffffff021916908373ffffffffffffffffffffffffffffffffffffffff160217905550505062000366565b6000600260009054906101000a900473ffffffffffffffffffffffffffffffffffffffff16905081600260006101000a81548173ffffffffffffffffffffffffffffffffffffffff021916908373ffffffffffffffffffffffffffffffffffffffff1602179055508173ffffffffffffffffffffffffffffffffffffffff168173ffffffffffffffffffffffffffffffffffffffff167f8be0079c531659141344cd1fd0a4f28419497f9722a3daafe3b4186f6b6457e060405160405180910390a35050565b600080fd5b600073ffffffffffffffffffffffffffffffffffffffff82169050919050565b6000620002b9826200028c565b9050919050565b620002cb81620002ac565b8114620002d757600080fd5b50565b600081519050620002eb81620002c0565b92915050565b600080604083850312156200030b576200030a62000287565b5b60006200031b85828601620002da565b92505060206200032e85828601620002da565b9150509250929050565b6200034381620002ac565b82525050565b600060208201905062000360600083018462000338565b92915050565b6134a680620003766000396000f3fe6080604052600436106101f25760003560e01c8063715018a61161010d578063be0403fc116100a0578063f1d064b31161006f578063f1d064b314610688578063f2fde38b146106b3578063f851a440146106dc578063f964711b14610707578063fa01dc0614610730576101f9565b8063be0403fc146105e0578063cfc162541461060b578063da35c66414610634578063de8ec63f1461065f576101f9565b806388e9aa90116100dc57806388e9aa901461054a5780638da5cb5b14610573578063b33712c51461059e578063b3cea217146105b5576101f9565b8063715018a6146104a0578063795053d3146104b75780637ce1f844146104e257806382f7d3921461050d576101f9565b80633fd8c99211610185578063585ba8f211610154578063585ba8f2146103e65780635c975abb1461040f578063658d43a51461043a5780636dfb0f1e14610477576101f9565b80633fd8c99214610354578063439766ce1461037d578063456e182f14610394578063487ede04146103bd576101f9565b806316598342116101c157806316598342146102bb578063280aa90b146102e45780632c1e816d1461030057806335278d1214610329576101f9565b806306ead22e146101fe57806308eee4301461023e5780630cdd53f6146102675780630fd8944514610290576101f9565b366101f957005b600080fd5b34801561020a57600080fd5b5061022560048036038101906102209190611fe2565b61076d565b604051610235949392919061210a565b60405180910390f35b34801561024a57600080fd5b5061026560048036038101906102609190611fe2565b610862565b005b34801561027357600080fd5b5061028e60048036038101906102899190612156565b610874565b005b34801561029c57600080fd5b506102a5610b72565b6040516102b29190612196565b60405180910390f35b3480156102c757600080fd5b506102e260048036038101906102dd9190612312565b610b78565b005b6102fe60048036038101906102f9919061236e565b611007565b005b34801561030c57600080fd5b5061032760048036038101906103229190612459565b61121b565b005b34801561033557600080fd5b5061033e611270565b60405161034b9190612196565b60405180910390f35b34801561036057600080fd5b5061037b60048036038101906103769190612486565b611276565b005b34801561038957600080fd5b50610392611319565b005b3480156103a057600080fd5b506103bb60048036038101906103b69190611fe2565b61132b565b005b3480156103c957600080fd5b506103e460048036038101906103df91906124d9565b61133d565b005b3480156103f257600080fd5b5061040d60048036038101906104089190612519565b6113ec565b005b34801561041b57600080fd5b506104246113f9565b6040516104319190612588565b60405180910390f35b34801561044657600080fd5b50610461600480360381019061045c9190612459565b61140f565b60405161046e9190612196565b60405180910390f35b34801561048357600080fd5b5061049e60048036038101906104999190612459565b611427565b005b3480156104ac57600080fd5b506104b5611524565b005b3480156104c357600080fd5b506104cc611538565b6040516104d991906125a3565b60405180910390f35b3480156104ee57600080fd5b506104f761155e565b6040516105049190612196565b60405180910390f35b34801561051957600080fd5b50610534600480360381019061052f9190612459565b611564565b6040516105419190612588565b60405180910390f35b34801561055657600080fd5b50610571600480360381019061056c9190612486565b611584565b005b34801561057f57600080fd5b506105886116d7565b60405161059591906125a3565b60405180910390f35b3480156105aa57600080fd5b506105b3611701565b005b3480156105c157600080fd5b506105ca611713565b6040516105d79190612196565b60405180910390f35b3480156105ec57600080fd5b506105f5611719565b6040516106029190612196565b60405180910390f35b34801561061757600080fd5b50610632600480360381019061062d9190612459565b61171f565b005b34801561064057600080fd5b50610649611774565b6040516106569190612196565b60405180910390f35b34801561066b57600080fd5b5061068660048036038101906106819190612459565b61177a565b005b34801561069457600080fd5b5061069d6118b7565b6040516106aa919061275a565b60405180910390f35b3480156106bf57600080fd5b506106da60048036038101906106d59190612459565b611a23565b005b3480156106e857600080fd5b506106f1611aa9565b6040516106fe91906125a3565b60405180910390f35b34801561071357600080fd5b5061072e600480360381019061072991906124d9565b611acf565b005b34801561073c57600080fd5b5061075760048036038101906107529190612459565b611c10565b6040516107649190612588565b60405180910390f35b600d818154811061077d57600080fd5b90600052602060002090600402016000915090508060000154908060010160009054906101000a900473ffffffffffffffffffffffffffffffffffffffff16908060020180546107cc906127ab565b80601f01602080910402602001604051908101604052809291908181526020018280546107f8906127ab565b80156108455780601f1061081a57610100808354040283529160200191610845565b820191906000526020600020905b81548152906001019060200180831161082857829003601f168201915b5050505050908060030160009054906101000a900460ff16905084565b61086a611c30565b8060098190555050565b600082116108b7576040517f08c379a00000000000000000000000000000000000000000000000000000000081526004016108ae90612828565b60405180910390fd5b81600360009054906101000a900473ffffffffffffffffffffffffffffffffffffffff1673ffffffffffffffffffffffffffffffffffffffff166370a08231336040518263ffffffff1660e01b815260040161091391906125a3565b602060405180830381865afa158015610930573d6000803e3d6000fd5b505050506040513d601f19601f82011682018060405250810190610954919061285d565b1015610995576040517f08c379a000000000000000000000000000000000000000000000000000000000815260040161098c906128d6565b60405180910390fd5b6000670de0b6b3a7640000836109ab9190612925565b9050600360009054906101000a900473ffffffffffffffffffffffffffffffffffffffff1673ffffffffffffffffffffffffffffffffffffffff166323b872dd3330846040518463ffffffff1660e01b8152600401610a0c93929190612967565b6020604051808303816000875af1158015610a2b573d6000803e3d6000fd5b505050506040513d601f19601f82011682018060405250810190610a4f91906129ca565b610a8e576040517f08c379a0000000000000000000000000000000000000000000000000000000008152600401610a8590612a43565b60405180910390fd5b600560009054906101000a900473ffffffffffffffffffffffffffffffffffffffff1673ffffffffffffffffffffffffffffffffffffffff16630cdd53f684846040518363ffffffff1660e01b8152600401610aeb929190612a63565b600060405180830381600087803b158015610b0557600080fd5b505af1158015610b19573d6000803e3d6000fd5b505050503373ffffffffffffffffffffffffffffffffffffffff167f106aac375bbcf013d1e52338bbf9e740009a1a3a6869f8daa1b72aa1620f5fec8242604051610b65929190612a63565b60405180910390a2505050565b60095481565b600e60008373ffffffffffffffffffffffffffffffffffffffff1673ffffffffffffffffffffffffffffffffffffffff16815260200190815260200160002060009054906101000a900460ff1615610c05576040517f08c379a0000000000000000000000000000000000000000000000000000000008152600401610bfc90612ad8565b60405180910390fd5b6000815111610c49576040517f08c379a0000000000000000000000000000000000000000000000000000000008152600401610c4090612b6a565b60405180910390fd5b6001600e60008473ffffffffffffffffffffffffffffffffffffffff1673ffffffffffffffffffffffffffffffffffffffff16815260200190815260200160002060006101000a81548160ff02191690831515021790555060006040518060800160405280600c5481526020018473ffffffffffffffffffffffffffffffffffffffff168152602001838152602001600015158152509050600d8190806001815401808255809150506001900390600052602060002090600402016000909190919091506000820151816000015560208201518160010160006101000a81548173ffffffffffffffffffffffffffffffffffffffff021916908373ffffffffffffffffffffffffffffffffffffffff1602179055506040820151816002019081610d739190612d36565b5060608201518160030160006101000a81548160ff0219169083151502179055505050600c6000815480929190610da990612e08565b9190505550600560009054906101000a900473ffffffffffffffffffffffffffffffffffffffff1673ffffffffffffffffffffffffffffffffffffffff16631659834284846040518363ffffffff1660e01b8152600401610e0b929190612e50565b600060405180830381600087803b158015610e2557600080fd5b505af1925050508015610e36575060015b610fa957610e42612e8d565b806308c379a003610eec5750610e56612eaf565b80610e615750610eee565b8373ffffffffffffffffffffffffffffffffffffffff167f366dab4b9c68dfaf305a88c7f279e25440affa93a61e7721645d1da936cc41ff82604051610ea79190612f3f565b60405180910390a2806040517f08c379a0000000000000000000000000000000000000000000000000000000008152600401610ee39190612f3f565b60405180910390fd5b505b3d8060008114610f1a576040519150601f19603f3d011682016040523d82523d6000602084013e610f1f565b606091505b508373ffffffffffffffffffffffffffffffffffffffff167f37e7e9fe846f96c03e8936cf2188f32e090b35caf398b847be37de4433e455ad82604051610f669190612fb6565b60405180910390a26040517f08c379a0000000000000000000000000000000000000000000000000000000008152600401610fa09061304a565b60405180910390fd5b81604051610fb791906130a6565b60405180910390208373ffffffffffffffffffffffffffffffffffffffff167fc1b20826100814ba286ac576fe980df1dbbcef3d904bb81f3d69a0e8280dc11460405160405180910390a3505050565b600e60003373ffffffffffffffffffffffffffffffffffffffff1673ffffffffffffffffffffffffffffffffffffffff16815260200190815260200160002060009054906101000a900460ff16611093576040517f08c379a000000000000000000000000000000000000000000000000000000000815260040161108a90613109565b60405180910390fd5b600f60003373ffffffffffffffffffffffffffffffffffffffff1673ffffffffffffffffffffffffffffffffffffffff16815260200190815260200160002060009054906101000a900460ff1615611120576040517f08c379a000000000000000000000000000000000000000000000000000000000815260040161111790613175565b60405180910390fd5b600954831115611165576040517f08c379a000000000000000000000000000000000000000000000000000000000815260040161115c906131e1565b60405180910390fd5b600560009054906101000a900473ffffffffffffffffffffffffffffffffffffffff1673ffffffffffffffffffffffffffffffffffffffff166338b464db8686868686336040518763ffffffff1660e01b81526004016111ca96959493929190613201565b600060405180830381600087803b1580156111e457600080fd5b505af11580156111f8573d6000803e3d6000fd5b505050506007600081548092919061120f90612e08565b91905055505050505050565b611223611c30565b61122c81611cb7565b80600660006101000a81548173ffffffffffffffffffffffffffffffffffffffff021916908373ffffffffffffffffffffffffffffffffffffffff16021790555050565b600b5481565b61127e611c30565b600460009054906101000a900473ffffffffffffffffffffffffffffffffffffffff1673ffffffffffffffffffffffffffffffffffffffff1663a415bcad8484846000306040518663ffffffff1660e01b81526004016112e29594939291906132c7565b600060405180830381600087803b1580156112fc57600080fd5b505af1158015611310573d6000803e3d6000fd5b50505050505050565b611321611c30565b611329611cf3565b565b611333611c30565b80600a8190555050565b611345611c30565b600460009054906101000a900473ffffffffffffffffffffffffffffffffffffffff1673ffffffffffffffffffffffffffffffffffffffff166369328dec8383306040518463ffffffff1660e01b81526004016113a49392919061331a565b6020604051808303816000875af11580156113c3573d6000803e3d6000fd5b505050506040513d601f19601f820116820180604052508101906113e7919061285d565b505050565b6113f4611c30565b505050565b60008060009054906101000a900460ff16905090565b60106020528060005260406000206000915090505481565b61142f611c30565b600f60008273ffffffffffffffffffffffffffffffffffffffff1673ffffffffffffffffffffffffffffffffffffffff16815260200190815260200160002060009054906101000a900460ff1615600f60008373ffffffffffffffffffffffffffffffffffffffff1673ffffffffffffffffffffffffffffffffffffffff16815260200190815260200160002060006101000a81548160ff0219169083151502179055508073ffffffffffffffffffffffffffffffffffffffff167f713b90881ad62c4fa8ab6bd9197fa86481fc0c11b2edba60026514281b2dbac4426040516115199190612196565b60405180910390a250565b61152c611c30565b6115366000611d55565b565b600560009054906101000a900473ffffffffffffffffffffffffffffffffffffffff1681565b60085481565b600e6020528060005260406000206000915054906101000a900460ff1681565b61158c611c30565b8273ffffffffffffffffffffffffffffffffffffffff1663095ea7b3600460009054906101000a900473ffffffffffffffffffffffffffffffffffffffff16846040518363ffffffff1660e01b81526004016115e9929190613351565b6020604051808303816000875af1158015611608573d6000803e3d6000fd5b505050506040513d601f19601f8201168201806040525081019061162c91906129ca565b50600460009054906101000a900473ffffffffffffffffffffffffffffffffffffffff1673ffffffffffffffffffffffffffffffffffffffff1663573ade81848484306040518563ffffffff1660e01b815260040161168e949392919061337a565b6020604051808303816000875af11580156116ad573d6000803e3d6000fd5b505050506040513d601f19601f820116820180604052508101906116d1919061285d565b50505050565b6000600260009054906101000a900473ffffffffffffffffffffffffffffffffffffffff16905090565b611709611c30565b611711611e1b565b565b600c5481565b600a5481565b611727611e7d565b61173081611cb7565b80600560006101000a81548173ffffffffffffffffffffffffffffffffffffffff021916908373ffffffffffffffffffffffffffffffffffffffff16021790555050565b60075481565b611782611c30565b600e60008273ffffffffffffffffffffffffffffffffffffffff1673ffffffffffffffffffffffffffffffffffffffff16815260200190815260200160002060009054906101000a900460ff1661180e576040517f08c379a000000000000000000000000000000000000000000000000000000000815260040161180590613109565b60405180910390fd5b6000600e60008373ffffffffffffffffffffffffffffffffffffffff1673ffffffffffffffffffffffffffffffffffffffff16815260200190815260200160002060006101000a81548160ff0219169083151502179055508073ffffffffffffffffffffffffffffffffffffffff167f713b90881ad62c4fa8ab6bd9197fa86481fc0c11b2edba60026514281b2dbac4426040516118ac9190612196565b60405180910390a250565b6060600d805480602002602001604051908101604052809291908181526020016000905b82821015611a1a5783829060005260206000209060040201604051806080016040529081600082015481526020016001820160009054906101000a900473ffffffffffffffffffffffffffffffffffffffff1673ffffffffffffffffffffffffffffffffffffffff1673ffffffffffffffffffffffffffffffffffffffff16815260200160028201805461196e906127ab565b80601f016020809104026020016040519081016040528092919081815260200182805461199a906127ab565b80156119e75780601f106119bc576101008083540402835291602001916119e7565b820191906000526020600020905b8154815290600101906020018083116119ca57829003601f168201915b505050505081526020016003820160009054906101000a900460ff161515151581525050815260200190600101906118db565b50505050905090565b611a2b611c30565b600073ffffffffffffffffffffffffffffffffffffffff168173ffffffffffffffffffffffffffffffffffffffff1603611a9d5760006040517f1e4fbdf7000000000000000000000000000000000000000000000000000000008152600401611a9491906125a3565b60405180910390fd5b611aa681611d55565b50565b600660009054906101000a900473ffffffffffffffffffffffffffffffffffffffff1681565b611ad7611c30565b8173ffffffffffffffffffffffffffffffffffffffff1663095ea7b3600460009054906101000a900473ffffffffffffffffffffffffffffffffffffffff16836040518363ffffffff1660e01b8152600401611b34929190613351565b6020604051808303816000875af1158015611b53573d6000803e3d6000fd5b505050506040513d601f19601f82011682018060405250810190611b7791906129ca565b50600460009054906101000a900473ffffffffffffffffffffffffffffffffffffffff1673ffffffffffffffffffffffffffffffffffffffff1663617ba03783833060006040518563ffffffff1660e01b8152600401611bda94939291906133bf565b600060405180830381600087803b158015611bf457600080fd5b505af1158015611c08573d6000803e3d6000fd5b505050505050565b600f6020528060005260406000206000915054906101000a900460ff1681565b611c38611f0f565b73ffffffffffffffffffffffffffffffffffffffff16611c566116d7565b73ffffffffffffffffffffffffffffffffffffffff1614611cb557611c79611f0f565b6040517f118cdaa7000000000000000000000000000000000000000000000000000000008152600401611cac91906125a3565b60405180910390fd5b565b600073ffffffffffffffffffffffffffffffffffffffff168173ffffffffffffffffffffffffffffffffffffffff1603611cf057600080fd5b50565b611cfb611f17565b60016000806101000a81548160ff0219169083151502179055507f62e78cea01bee320cd4e420270b5ea74000d11b0c9f74754ebdbfc544b05a258611d3e611f0f565b604051611d4b91906125a3565b60405180910390a1565b6000600260009054906101000a900473ffffffffffffffffffffffffffffffffffffffff16905081600260006101000a81548173ffffffffffffffffffffffffffffffffffffffff021916908373ffffffffffffffffffffffffffffffffffffffff1602179055508173ffffffffffffffffffffffffffffffffffffffff168173ffffffffffffffffffffffffffffffffffffffff167f8be0079c531659141344cd1fd0a4f28419497f9722a3daafe3b4186f6b6457e060405160405180910390a35050565b611e23611f58565b60008060006101000a81548160ff0219169083151502179055507f5db9ee0a495bf2e6ff9c91a7834c1ba4fdd244a5e8aa4e537bd38aeae4b073aa611e66611f0f565b604051611e7391906125a3565b60405180910390a1565b600660009054906101000a900473ffffffffffffffffffffffffffffffffffffffff1673ffffffffffffffffffffffffffffffffffffffff163373ffffffffffffffffffffffffffffffffffffffff1614611f0d576040517f08c379a0000000000000000000000000000000000000000000000000000000008152600401611f0490613450565b60405180910390fd5b565b600033905090565b611f1f6113f9565b15611f56576040517fd93c066500000000000000000000000000000000000000000000000000000000815260040160405180910390fd5b565b611f606113f9565b611f96576040517f8dfc202b00000000000000000000000000000000000000000000000000000000815260040160405180910390fd5b565b6000604051905090565b600080fd5b600080fd5b6000819050919050565b611fbf81611fac565b8114611fca57600080fd5b50565b600081359050611fdc81611fb6565b92915050565b600060208284031215611ff857611ff7611fa2565b5b600061200684828501611fcd565b91505092915050565b61201881611fac565b82525050565b600073ffffffffffffffffffffffffffffffffffffffff82169050919050565b60006120498261201e565b9050919050565b6120598161203e565b82525050565b600081519050919050565b600082825260208201905092915050565b60005b8381101561209957808201518184015260208101905061207e565b60008484015250505050565b6000601f19601f8301169050919050565b60006120c18261205f565b6120cb818561206a565b93506120db81856020860161207b565b6120e4816120a5565b840191505092915050565b60008115159050919050565b612104816120ef565b82525050565b600060808201905061211f600083018761200f565b61212c6020830186612050565b818103604083015261213e81856120b6565b905061214d60608301846120fb565b95945050505050565b6000806040838503121561216d5761216c611fa2565b5b600061217b85828601611fcd565b925050602061218c85828601611fcd565b9150509250929050565b60006020820190506121ab600083018461200f565b92915050565b6121ba8161203e565b81146121c557600080fd5b50565b6000813590506121d7816121b1565b92915050565b600080fd5b600080fd5b7f4e487b7100000000000000000000000000000000000000000000000000000000600052604160045260246000fd5b61221f826120a5565b810181811067ffffffffffffffff8211171561223e5761223d6121e7565b5b80604052505050565b6000612251611f98565b905061225d8282612216565b919050565b600067ffffffffffffffff82111561227d5761227c6121e7565b5b612286826120a5565b9050602081019050919050565b82818337600083830152505050565b60006122b56122b084612262565b612247565b9050828152602081018484840111156122d1576122d06121e2565b5b6122dc848285612293565b509392505050565b600082601f8301126122f9576122f86121dd565b5b81356123098482602086016122a2565b91505092915050565b6000806040838503121561232957612328611fa2565b5b6000612337858286016121c8565b925050602083013567ffffffffffffffff81111561235857612357611fa7565b5b612364858286016122e4565b9150509250929050565b600080600080600060a0868803121561238a57612389611fa2565b5b600086013567ffffffffffffffff8111156123a8576123a7611fa7565b5b6123b4888289016122e4565b955050602086013567ffffffffffffffff8111156123d5576123d4611fa7565b5b6123e1888289016122e4565b94505060406123f288828901611fcd565b935050606086013567ffffffffffffffff81111561241357612412611fa7565b5b61241f888289016122e4565b925050608086013567ffffffffffffffff8111156124405761243f611fa7565b5b61244c888289016122e4565b9150509295509295909350565b60006020828403121561246f5761246e611fa2565b5b600061247d848285016121c8565b91505092915050565b60008060006060848603121561249f5761249e611fa2565b5b60006124ad868287016121c8565b93505060206124be86828701611fcd565b92505060406124cf86828701611fcd565b9150509250925092565b600080604083850312156124f0576124ef611fa2565b5b60006124fe858286016121c8565b925050602061250f85828601611fcd565b9150509250929050565b60008060006060848603121561253257612531611fa2565b5b6000612540868287016121c8565b935050602061255186828701611fcd565b925050604084013567ffffffffffffffff81111561257257612571611fa7565b5b61257e868287016122e4565b9150509250925092565b600060208201905061259d60008301846120fb565b92915050565b60006020820190506125b86000830184612050565b92915050565b600081519050919050565b600082825260208201905092915050565b6000819050602082019050919050565b6125f381611fac565b82525050565b6126028161203e565b82525050565b600082825260208201905092915050565b60006126248261205f565b61262e8185612608565b935061263e81856020860161207b565b612647816120a5565b840191505092915050565b61265b816120ef565b82525050565b600060808301600083015161267960008601826125ea565b50602083015161268c60208601826125f9565b50604083015184820360408601526126a48282612619565b91505060608301516126b96060860182612652565b508091505092915050565b60006126d08383612661565b905092915050565b6000602082019050919050565b60006126f0826125be565b6126fa81856125c9565b93508360208202850161270c856125da565b8060005b85811015612748578484038952815161272985826126c4565b9450612734836126d8565b925060208a01995050600181019050612710565b50829750879550505050505092915050565b6000602082019050818103600083015261277481846126e5565b905092915050565b7f4e487b7100000000000000000000000000000000000000000000000000000000600052602260045260246000fd5b600060028204905060018216806127c357607f821691505b6020821081036127d6576127d561277c565b5b50919050565b7f416d6f756e74206d7573742062652067726561746572207468616e207a65726f600082015250565b600061281260208361206a565b915061281d826127dc565b602082019050919050565b6000602082019050818103600083015261284181612805565b9050919050565b60008151905061285781611fb6565b92915050565b60006020828403121561287357612872611fa2565b5b600061288184828501612848565b91505092915050565b7f496e73756666696369656e742062616c616e6365000000000000000000000000600082015250565b60006128c060148361206a565b91506128cb8261288a565b602082019050919050565b600060208201905081810360008301526128ef816128b3565b9050919050565b7f4e487b7100000000000000000000000000000000000000000000000000000000600052601160045260246000fd5b600061293082611fac565b915061293b83611fac565b925082820261294981611fac565b915082820484148315176129605761295f6128f6565b5b5092915050565b600060608201905061297c6000830186612050565b6129896020830185612050565b612996604083018461200f565b949350505050565b6129a7816120ef565b81146129b257600080fd5b50565b6000815190506129c48161299e565b92915050565b6000602082840312156129e0576129df611fa2565b5b60006129ee848285016129b5565b91505092915050565b7f546f6b656e207472616e73666572206661696c65640000000000000000000000600082015250565b6000612a2d60158361206a565b9150612a38826129f7565b602082019050919050565b60006020820190508181036000830152612a5c81612a20565b9050919050565b6000604082019050612a78600083018561200f565b612a85602083018461200f565b9392505050565b7f53747564656e7420697320616c72656164792072656769737465726564000000600082015250565b6000612ac2601d8361206a565b9150612acd82612a8c565b602082019050919050565b60006020820190508181036000830152612af181612ab5565b9050919050565b7f496d61676520495046532068617368206d757374206e6f7420626520656d707460008201527f7900000000000000000000000000000000000000000000000000000000000000602082015250565b6000612b5460218361206a565b9150612b5f82612af8565b604082019050919050565b60006020820190508181036000830152612b8381612b47565b9050919050565b60008190508160005260206000209050919050565b60006020601f8301049050919050565b600082821b905092915050565b600060088302612bec7fffffffffffffffffffffffffffffffffffffffffffffffffffffffffffffffff82612baf565b612bf68683612baf565b95508019841693508086168417925050509392505050565b6000819050919050565b6000612c33612c2e612c2984611fac565b612c0e565b611fac565b9050919050565b6000819050919050565b612c4d83612c18565b612c61612c5982612c3a565b848454612bbc565b825550505050565b600090565b612c76612c69565b612c81818484612c44565b505050565b5b81811015612ca557612c9a600082612c6e565b600181019050612c87565b5050565b601f821115612cea57612cbb81612b8a565b612cc484612b9f565b81016020851015612cd3578190505b612ce7612cdf85612b9f565b830182612c86565b50505b505050565b600082821c905092915050565b6000612d0d60001984600802612cef565b1980831691505092915050565b6000612d268383612cfc565b9150826002028217905092915050565b612d3f8261205f565b67ffffffffffffffff811115612d5857612d576121e7565b5b612d6282546127ab565b612d6d828285612ca9565b600060209050601f831160018114612da05760008415612d8e578287015190505b612d988582612d1a565b865550612e00565b601f198416612dae86612b8a565b60005b82811015612dd657848901518255600182019150602085019450602081019050612db1565b86831015612df35784890151612def601f891682612cfc565b8355505b6001600288020188555050505b505050505050565b6000612e1382611fac565b91507fffffffffffffffffffffffffffffffffffffffffffffffffffffffffffffffff8203612e4557612e446128f6565b5b600182019050919050565b6000604082019050612e656000830185612050565b8181036020830152612e7781846120b6565b90509392505050565b60008160e01c9050919050565b600060033d1115612eac5760046000803e612ea9600051612e80565b90505b90565b600060443d10612f3c57612ec1611f98565b60043d036004823e80513d602482011167ffffffffffffffff82111715612ee9575050612f3c565b808201805167ffffffffffffffff811115612f075750505050612f3c565b80602083010160043d038501811115612f24575050505050612f3c565b612f3382602001850186612216565b82955050505050505b90565b60006020820190508181036000830152612f5981846120b6565b905092915050565b600081519050919050565b600082825260208201905092915050565b6000612f8882612f61565b612f928185612f6c565b9350612fa281856020860161207b565b612fab816120a5565b840191505092915050565b60006020820190508181036000830152612fd08184612f7d565b905092915050565b7f556e6578706563746564206572726f7220696e20676f7665726e616e6365206360008201527f6f6e747261637400000000000000000000000000000000000000000000000000602082015250565b600061303460278361206a565b915061303f82612fd8565b604082019050919050565b6000602082019050818103600083015261306381613027565b9050919050565b600081905092915050565b60006130808261205f565b61308a818561306a565b935061309a81856020860161207b565b80840191505092915050565b60006130b28284613075565b915081905092915050565b7f4e6f7420612073747564656e7400000000000000000000000000000000000000600082015250565b60006130f3600d8361206a565b91506130fe826130bd565b602082019050919050565b60006020820190508181036000830152613122816130e6565b9050919050565b7f596f7520617265207265766f6b65642064756520746f206f6666656e63650000600082015250565b600061315f601e8361206a565b915061316a82613129565b602082019050919050565b6000602082019050818103600083015261318e81613152565b9050919050565b7f416d6f756e742061626f76652062756467657400000000000000000000000000600082015250565b60006131cb60138361206a565b91506131d682613195565b602082019050919050565b600060208201905081810360008301526131fa816131be565b9050919050565b600060c082019050818103600083015261321b81896120b6565b9050818103602083015261322f81886120b6565b905061323e604083018761200f565b818103606083015261325081866120b6565b9050818103608083015261326481856120b6565b905061327360a0830184612050565b979650505050505050565b6000819050919050565b600061ffff82169050919050565b60006132b16132ac6132a78461327e565b612c0e565b613288565b9050919050565b6132c181613296565b82525050565b600060a0820190506132dc6000830188612050565b6132e9602083018761200f565b6132f6604083018661200f565b61330360608301856132b8565b6133106080830184612050565b9695505050505050565b600060608201905061332f6000830186612050565b61333c602083018561200f565b6133496040830184612050565b949350505050565b60006040820190506133666000830185612050565b613373602083018461200f565b9392505050565b600060808201905061338f6000830187612050565b61339c602083018661200f565b6133a9604083018561200f565b6133b66060830184612050565b95945050505050565b60006080820190506133d46000830187612050565b6133e1602083018661200f565b6133ee6040830185612050565b6133fb60608301846132b8565b95945050505050565b7f4e6f742061646d696e0000000000000000000000000000000000000000000000600082015250565b600061343a60098361206a565b915061344582613404565b602082019050919050565b600060208201905081810360008301526134698161342d565b905091905056fea2646970667358221220bf8956be1ce6ba12c2056ae380e6f5e63e9fb2cf3a3b05af372a9c077371e51064736f6c63430008180033",
  "linkReferences": {},
  "deployedLinkReferences": {}
}